{
  "_format": "hh-sol-artifact-1",
  "contractName": "AvaxGeisha",
  "sourceName": "contracts/AvaxGeisha.sol",
  "abi": [
    {
      "inputs": [],
      "stateMutability": "nonpayable",
      "type": "constructor"
    },
    {
      "anonymous": false,
      "inputs": [
        {
          "indexed": true,
          "internalType": "address",
          "name": "owner",
          "type": "address"
        },
        {
          "indexed": true,
          "internalType": "address",
          "name": "approved",
          "type": "address"
        },
        {
          "indexed": true,
          "internalType": "uint256",
          "name": "tokenId",
          "type": "uint256"
        }
      ],
      "name": "Approval",
      "type": "event"
    },
    {
      "anonymous": false,
      "inputs": [
        {
          "indexed": true,
          "internalType": "address",
          "name": "owner",
          "type": "address"
        },
        {
          "indexed": true,
          "internalType": "address",
          "name": "operator",
          "type": "address"
        },
        {
          "indexed": false,
          "internalType": "bool",
          "name": "approved",
          "type": "bool"
        }
      ],
      "name": "ApprovalForAll",
      "type": "event"
    },
    {
      "anonymous": false,
      "inputs": [
        {
          "indexed": true,
          "internalType": "address",
          "name": "previousOwner",
          "type": "address"
        },
        {
          "indexed": true,
          "internalType": "address",
          "name": "newOwner",
          "type": "address"
        }
      ],
      "name": "OwnershipTransferred",
      "type": "event"
    },
    {
      "anonymous": false,
      "inputs": [
        {
          "indexed": true,
          "internalType": "address",
          "name": "from",
          "type": "address"
        },
        {
          "indexed": true,
          "internalType": "address",
          "name": "to",
          "type": "address"
        },
        {
          "indexed": true,
          "internalType": "uint256",
          "name": "tokenId",
          "type": "uint256"
        }
      ],
      "name": "Transfer",
      "type": "event"
    },
    {
      "inputs": [],
      "name": "MAX_ELEMENTS",
      "outputs": [
        {
          "internalType": "uint256",
          "name": "",
          "type": "uint256"
        }
      ],
      "stateMutability": "view",
      "type": "function"
    },
    {
      "inputs": [],
      "name": "MAX_MINTABLE",
      "outputs": [
        {
          "internalType": "uint256",
          "name": "",
          "type": "uint256"
        }
      ],
      "stateMutability": "view",
      "type": "function"
    },
    {
      "inputs": [
        {
          "internalType": "address",
          "name": "to",
          "type": "address"
        },
        {
          "internalType": "uint256",
          "name": "tokenId",
          "type": "uint256"
        }
      ],
      "name": "approve",
      "outputs": [],
      "stateMutability": "nonpayable",
      "type": "function"
    },
    {
      "inputs": [
        {
          "internalType": "address",
          "name": "owner",
          "type": "address"
        }
      ],
      "name": "balanceOf",
      "outputs": [
        {
          "internalType": "uint256",
          "name": "",
          "type": "uint256"
        }
      ],
      "stateMutability": "view",
      "type": "function"
    },
    {
      "inputs": [],
      "name": "baseURI",
      "outputs": [
        {
          "internalType": "string",
          "name": "",
          "type": "string"
        }
      ],
      "stateMutability": "view",
      "type": "function"
    },
    {
      "inputs": [],
      "name": "claimUserReward",
      "outputs": [],
      "stateMutability": "nonpayable",
      "type": "function"
    },
    {
      "inputs": [
        {
          "internalType": "uint256",
          "name": "tokenId",
          "type": "uint256"
        }
      ],
      "name": "getApproved",
      "outputs": [
        {
          "internalType": "address",
          "name": "",
          "type": "address"
        }
      ],
      "stateMutability": "view",
      "type": "function"
    },
    {
      "inputs": [],
      "name": "getTokenPrimaryPrice",
      "outputs": [
        {
          "internalType": "uint256",
          "name": "",
          "type": "uint256"
        }
      ],
      "stateMutability": "view",
      "type": "function"
    },
    {
      "inputs": [
        {
          "internalType": "address",
          "name": "user_",
          "type": "address"
        }
      ],
      "name": "getUserCollections",
      "outputs": [
        {
          "internalType": "uint256[]",
          "name": "",
          "type": "uint256[]"
        }
      ],
      "stateMutability": "view",
      "type": "function"
    },
    {
      "inputs": [
        {
          "internalType": "address",
          "name": "owner",
          "type": "address"
        },
        {
          "internalType": "address",
          "name": "operator",
          "type": "address"
        }
      ],
      "name": "isApprovedForAll",
      "outputs": [
        {
          "internalType": "bool",
          "name": "",
          "type": "bool"
        }
      ],
      "stateMutability": "view",
      "type": "function"
    },
    {
      "inputs": [
        {
          "internalType": "uint256",
          "name": "mintAmount_",
          "type": "uint256"
        }
      ],
      "name": "mintNfts",
      "outputs": [],
      "stateMutability": "payable",
      "type": "function"
    },
    {
      "inputs": [],
      "name": "mintedSupply",
      "outputs": [
        {
          "internalType": "uint256",
          "name": "",
          "type": "uint256"
        }
      ],
      "stateMutability": "view",
      "type": "function"
    },
    {
      "inputs": [],
      "name": "mintedTotalCost",
      "outputs": [
        {
          "internalType": "uint256",
          "name": "",
          "type": "uint256"
        }
      ],
      "stateMutability": "view",
      "type": "function"
    },
    {
      "inputs": [],
      "name": "name",
      "outputs": [
        {
          "internalType": "string",
          "name": "",
          "type": "string"
        }
      ],
      "stateMutability": "view",
      "type": "function"
    },
    {
      "inputs": [],
      "name": "nftCounter",
      "outputs": [
        {
          "internalType": "uint256",
          "name": "",
          "type": "uint256"
        }
      ],
      "stateMutability": "view",
      "type": "function"
    },
    {
      "inputs": [],
      "name": "owner",
      "outputs": [
        {
          "internalType": "address",
          "name": "",
          "type": "address"
        }
      ],
      "stateMutability": "view",
      "type": "function"
    },
    {
      "inputs": [
        {
          "internalType": "uint256",
          "name": "tokenId",
          "type": "uint256"
        }
      ],
      "name": "ownerOf",
      "outputs": [
        {
          "internalType": "address",
          "name": "",
          "type": "address"
        }
      ],
      "stateMutability": "view",
      "type": "function"
    },
    {
      "inputs": [],
      "name": "reflection",
      "outputs": [
        {
          "internalType": "uint256",
          "name": "",
          "type": "uint256"
        }
      ],
      "stateMutability": "view",
      "type": "function"
    },
    {
      "inputs": [],
      "name": "renounceOwnership",
      "outputs": [],
      "stateMutability": "nonpayable",
      "type": "function"
    },
    {
      "inputs": [
        {
          "internalType": "address",
          "name": "from",
          "type": "address"
        },
        {
          "internalType": "address",
          "name": "to",
          "type": "address"
        },
        {
          "internalType": "uint256",
          "name": "tokenId",
          "type": "uint256"
        }
      ],
      "name": "safeTransferFrom",
      "outputs": [],
      "stateMutability": "nonpayable",
      "type": "function"
    },
    {
      "inputs": [
        {
          "internalType": "address",
          "name": "from",
          "type": "address"
        },
        {
          "internalType": "address",
          "name": "to",
          "type": "address"
        },
        {
          "internalType": "uint256",
          "name": "tokenId",
          "type": "uint256"
        },
        {
          "internalType": "bytes",
          "name": "_data",
          "type": "bytes"
        }
      ],
      "name": "safeTransferFrom",
      "outputs": [],
      "stateMutability": "nonpayable",
      "type": "function"
    },
    {
      "inputs": [
        {
          "internalType": "address",
          "name": "operator",
          "type": "address"
        },
        {
          "internalType": "bool",
          "name": "approved",
          "type": "bool"
        }
      ],
      "name": "setApprovalForAll",
      "outputs": [],
      "stateMutability": "nonpayable",
      "type": "function"
    },
    {
      "inputs": [
        {
          "internalType": "string",
          "name": "baseURI_",
          "type": "string"
        }
      ],
      "name": "setBaseURI",
      "outputs": [],
      "stateMutability": "nonpayable",
      "type": "function"
    },
    {
      "inputs": [
        {
          "internalType": "uint256",
          "name": "_reflection",
          "type": "uint256"
        }
      ],
      "name": "setReflection",
      "outputs": [],
      "stateMutability": "nonpayable",
      "type": "function"
    },
    {
      "inputs": [
        {
          "internalType": "uint256",
          "name": "tokenPrimaryPrice_",
          "type": "uint256"
        }
      ],
      "name": "setTokenPrimaryPrice",
      "outputs": [],
      "stateMutability": "nonpayable",
      "type": "function"
    },
    {
      "inputs": [],
      "name": "startMintTime",
      "outputs": [
        {
          "internalType": "uint256",
          "name": "",
          "type": "uint256"
        }
      ],
      "stateMutability": "view",
      "type": "function"
    },
    {
      "inputs": [
        {
          "internalType": "bytes4",
          "name": "interfaceId",
          "type": "bytes4"
        }
      ],
      "name": "supportsInterface",
      "outputs": [
        {
          "internalType": "bool",
          "name": "",
          "type": "bool"
        }
      ],
      "stateMutability": "view",
      "type": "function"
    },
    {
      "inputs": [],
      "name": "symbol",
      "outputs": [
        {
          "internalType": "string",
          "name": "",
          "type": "string"
        }
      ],
      "stateMutability": "view",
      "type": "function"
    },
    {
      "inputs": [],
      "name": "tokenPrimaryPrice",
      "outputs": [
        {
          "internalType": "uint256",
          "name": "",
          "type": "uint256"
        }
      ],
      "stateMutability": "view",
      "type": "function"
    },
    {
      "inputs": [
        {
          "internalType": "uint256",
          "name": "tokenId_",
          "type": "uint256"
        }
      ],
      "name": "tokenURI",
      "outputs": [
        {
          "internalType": "string",
          "name": "",
          "type": "string"
        }
      ],
      "stateMutability": "view",
      "type": "function"
    },
    {
      "inputs": [
        {
          "internalType": "address",
          "name": "from",
          "type": "address"
        },
        {
          "internalType": "address",
          "name": "to",
          "type": "address"
        },
        {
          "internalType": "uint256",
          "name": "tokenId",
          "type": "uint256"
        }
      ],
      "name": "transferFrom",
      "outputs": [],
      "stateMutability": "nonpayable",
      "type": "function"
    },
    {
      "inputs": [
        {
          "internalType": "address",
          "name": "newOwner",
          "type": "address"
        }
      ],
      "name": "transferOwnership",
      "outputs": [],
      "stateMutability": "nonpayable",
      "type": "function"
    },
    {
      "inputs": [
        {
          "internalType": "address",
          "name": "",
          "type": "address"
        },
        {
          "internalType": "uint256",
          "name": "",
          "type": "uint256"
        }
      ],
      "name": "userCollections",
      "outputs": [
        {
          "internalType": "uint256",
          "name": "",
          "type": "uint256"
        }
      ],
      "stateMutability": "view",
      "type": "function"
    },
    {
      "inputs": [
        {
          "internalType": "address",
          "name": "user_",
          "type": "address"
        }
      ],
      "name": "viewUserReward",
      "outputs": [
        {
          "internalType": "uint256",
          "name": "",
          "type": "uint256"
        }
      ],
      "stateMutability": "view",
      "type": "function"
    },
    {
      "inputs": [],
      "name": "withdrawFunds",
      "outputs": [],
      "stateMutability": "nonpayable",
      "type": "function"
    },
    {
      "inputs": [
        {
          "internalType": "address payable",
          "name": "destination_",
          "type": "address"
        },
        {
          "internalType": "uint256",
          "name": "withdrawAmount_",
          "type": "uint256"
        }
      ],
      "name": "withdrawStuckMoney",
      "outputs": [],
      "stateMutability": "nonpayable",
      "type": "function"
    }
  ],
  "bytecode": "0x6080604052620186a0600c55612710600d553480156200001e57600080fd5b50604080518082018252600b81526a417661782067656973686160a81b602080830191825283518085019094526002845261414760f01b9084015281519192916200006c916000916200010e565b508051620000829060019060208401906200010e565b5050506200009f62000099620000b860201b60201c565b620000bc565b66038d7ea4c680006008556361955130600955620001f1565b3390565b600680546001600160a01b038381166001600160a01b0319831681179093556040519116919082907f8be0079c531659141344cd1fd0a4f28419497f9722a3daafe3b4186f6b6457e090600090a35050565b8280546200011c90620001b4565b90600052602060002090601f0160209004810192826200014057600085556200018b565b82601f106200015b57805160ff19168380011785556200018b565b828001600101855582156200018b579182015b828111156200018b5782518255916020019190600101906200016e565b50620001999291506200019d565b5090565b5b808211156200019957600081556001016200019e565b600181811c90821680620001c957607f821691505b60208210811415620001eb57634e487b7160e01b600052602260045260246000fd5b50919050565b61246980620002016000396000f3fe60806040526004361061020f5760003560e01c80636c0360eb11610118578063c1bd8cf9116100a0578063df6c75f81161006f578063df6c75f8146105ad578063e574609e146105c3578063e985e9c5146105d9578063f2fde38b14610622578063fdcb891e1461064257600080fd5b8063c1bd8cf914610550578063c87b56dd14610565578063d8ad684014610585578063dba433fc1461059a57600080fd5b80638da5cb5b116100e75780638da5cb5b146104b057806395d89b41146104ce5780639aa5ad8c146104e3578063a22cb46514610510578063b88d4fde1461053057600080fd5b80636c0360eb1461045057806370a0823114610465578063715018a6146104855780638500a45d1461049a57600080fd5b8063324d44751161019b578063428a61711161016a578063428a6171146103b057806350a4b72e146103d057806355f804b3146103f057806356f39492146104105780636352211e1461043057600080fd5b8063324d44751461034f5780633502a716146103655780633f879faf1461037b57806342842e0e1461039057600080fd5b8063095ea7b3116101e2578063095ea7b3146102c257806323b872dd146102e457806324600fc314610304578063268f8f77146103195780632e6d57bf1461032f57600080fd5b806301ffc9a71461021457806306fdde0314610249578063081812fc1461026b578063088efc52146102a3575b600080fd5b34801561022057600080fd5b5061023461022f36600461202f565b610662565b60405190151581526020015b60405180910390f35b34801561025557600080fd5b5061025e6106b4565b60405161024091906121b7565b34801561027757600080fd5b5061028b6102863660046120b2565b610746565b6040516001600160a01b039091168152602001610240565b3480156102af57600080fd5b506008545b604051908152602001610240565b3480156102ce57600080fd5b506102e26102dd366004611ed6565b6107e0565b005b3480156102f057600080fd5b506102e26102ff366004611f3b565b6108f6565b34801561031057600080fd5b506102e2610927565b34801561032557600080fd5b506102b4600c5481565b34801561033b57600080fd5b506102b461034a366004611eb9565b6109cd565b34801561035b57600080fd5b506102b460085481565b34801561037157600080fd5b506102b461271081565b34801561038757600080fd5b506102b4601481565b34801561039c57600080fd5b506102e26103ab366004611f3b565b610a91565b3480156103bc57600080fd5b506102b46103cb366004611ed6565b610aac565b3480156103dc57600080fd5b506102e26103eb3660046120b2565b610add565b3480156103fc57600080fd5b506102e261040b366004612069565b610b0c565b34801561041c57600080fd5b506102e261042b366004611ed6565b610b4d565b34801561043c57600080fd5b5061028b61044b3660046120b2565b610c30565b34801561045c57600080fd5b5061025e610ca7565b34801561047157600080fd5b506102b4610480366004611eb9565b610d35565b34801561049157600080fd5b506102e2610dbc565b3480156104a657600080fd5b506102b460095481565b3480156104bc57600080fd5b506006546001600160a01b031661028b565b3480156104da57600080fd5b5061025e610df2565b3480156104ef57600080fd5b506105036104fe366004611eb9565b610e01565b6040516102409190612173565b34801561051c57600080fd5b506102e261052b366004611ffc565b610e6d565b34801561053c57600080fd5b506102e261054b366004611f7c565b610e78565b34801561055c57600080fd5b506007546102b4565b34801561057157600080fd5b5061025e6105803660046120b2565b610eb0565b34801561059157600080fd5b506102e2610ff0565b6102e26105a83660046120b2565b611138565b3480156105b957600080fd5b506102b4600a5481565b3480156105cf57600080fd5b506102b460075481565b3480156105e557600080fd5b506102346105f4366004611f02565b6001600160a01b03918216600090815260056020908152604080832093909416825291909152205460ff1690565b34801561062e57600080fd5b506102e261063d366004611eb9565b6113a0565b34801561064e57600080fd5b506102e261065d3660046120b2565b61143b565b60006001600160e01b031982166380ac58cd60e01b148061069357506001600160e01b03198216635b5e139f60e01b145b806106ae57506301ffc9a760e01b6001600160e01b03198316145b92915050565b6060600080546106c390612330565b80601f01602080910402602001604051908101604052809291908181526020018280546106ef90612330565b801561073c5780601f106107115761010080835404028352916020019161073c565b820191906000526020600020905b81548152906001019060200180831161071f57829003601f168201915b5050505050905090565b6000818152600260205260408120546001600160a01b03166107c45760405162461bcd60e51b815260206004820152602c60248201527f4552433732313a20617070726f76656420717565727920666f72206e6f6e657860448201526b34b9ba32b73a103a37b5b2b760a11b60648201526084015b60405180910390fd5b506000908152600460205260409020546001600160a01b031690565b60006107eb82610c30565b9050806001600160a01b0316836001600160a01b031614156108595760405162461bcd60e51b815260206004820152602160248201527f4552433732313a20617070726f76616c20746f2063757272656e74206f776e656044820152603960f91b60648201526084016107bb565b336001600160a01b0382161480610875575061087581336105f4565b6108e75760405162461bcd60e51b815260206004820152603860248201527f4552433732313a20617070726f76652063616c6c6572206973206e6f74206f7760448201527f6e6572206e6f7220617070726f76656420666f7220616c6c000000000000000060648201526084016107bb565b6108f1838361146a565b505050565b61090033826114d8565b61091c5760405162461bcd60e51b81526004016107bb90612251565b6108f18383836115cf565b6006546001600160a01b031633146109515760405162461bcd60e51b81526004016107bb9061221c565b6006546001600160a01b031633146109975760405162461bcd60e51b81526020600482015260096024820152683737ba1037bbb732b960b91b60448201526064016107bb565b600a54604051339180156108fc02916000818181858888f193505050501580156109c5573d6000803e3d6000fd5b506000600a55565b6000806109e26006546001600160a01b031690565b6001600160a01b0316836001600160a01b03161415610a0c57600a54610a0990829061173e565b90505b6000610a1784610e01565b90506000805b8251811015610a875760106000848381518110610a3c57610a3c6123dc565b6020026020010151815260200190815260200160002054600f54610a6091906122ed565b91508115610a7557610a7282856122a2565b93505b80610a7f8161236b565b915050610a1d565b5091949350505050565b6108f183838360405180602001604052806000815250610e78565b600e6020528160005260406000208181548110610ac857600080fd5b90600052602060002001600091509150505481565b6006546001600160a01b03163314610b075760405162461bcd60e51b81526004016107bb9061221c565b600c55565b6006546001600160a01b03163314610b365760405162461bcd60e51b81526004016107bb9061221c565b8051610b4990600b906020840190611daa565b5050565b6006546001600160a01b03163314610b775760405162461bcd60e51b81526004016107bb9061221c565b80600a5447610b8691906122ed565b1015610bfa5760405162461bcd60e51b815260206004820152603960248201527f4e6f20737475636b206d6f6e6579206f7220746865207769746864726177416d60448201527f6f756e7420796f752077616e7420697320746f6f206d7563680000000000000060648201526084016107bb565b6040516001600160a01b0383169082156108fc029083906000818181858888f193505050501580156108f1573d6000803e3d6000fd5b6000818152600260205260408120546001600160a01b0316806106ae5760405162461bcd60e51b815260206004820152602960248201527f4552433732313a206f776e657220717565727920666f72206e6f6e657869737460448201526832b73a103a37b5b2b760b91b60648201526084016107bb565b600b8054610cb490612330565b80601f0160208091040260200160405190810160405280929190818152602001828054610ce090612330565b8015610d2d5780601f10610d0257610100808354040283529160200191610d2d565b820191906000526020600020905b815481529060010190602001808311610d1057829003601f168201915b505050505081565b60006001600160a01b038216610da05760405162461bcd60e51b815260206004820152602a60248201527f4552433732313a2062616c616e636520717565727920666f7220746865207a65604482015269726f206164647265737360b01b60648201526084016107bb565b506001600160a01b031660009081526003602052604090205490565b6006546001600160a01b03163314610de65760405162461bcd60e51b81526004016107bb9061221c565b610df06000611751565b565b6060600180546106c390612330565b6001600160a01b0381166000908152600e6020908152604091829020805483518184028101840190945280845260609392830182828015610e6157602002820191906000526020600020905b815481526020019060010190808311610e4d575b50505050509050919050565b610b493383836117a3565b610e8233836114d8565b610e9e5760405162461bcd60e51b81526004016107bb90612251565b610eaa84848484611872565b50505050565b6000818152600260205260409020546060906001600160a01b0316610f2f5760405162461bcd60e51b815260206004820152602f60248201527f4552433732314d657461646174613a2055524920717565727920666f72206e6f60448201526e3732bc34b9ba32b73a103a37b5b2b760891b60648201526084016107bb565b6000600b8054610f3e90612330565b80601f0160208091040260200160405190810160405280929190818152602001828054610f6a90612330565b8015610fb75780601f10610f8c57610100808354040283529160200191610fb7565b820191906000526020600020905b815481529060010190602001808311610f9a57829003601f168201915b5050505050905080610fc8846118a5565b604051602001610fd99291906120f7565b604051602081830303815290604052915050919050565b6000610ffb336109cd565b118061101157506006546001600160a01b031633145b61104c5760405162461bcd60e51b815260206004820152600c60248201526b2932bbb0b9321034b990181760a11b60448201526064016107bb565b6000611057336109cd565b604051909150339082156108fc029083906000818181858888f19350505050158015611087573d6000803e3d6000fd5b50600061109333610e01565b90506000805b8251811015610eaa57601060008483815181106110b8576110b86123dc565b6020026020010151815260200190815260200160002054600f546110dc91906122ed565b915081156111265781601060008584815181106110fb576110fb6123dc565b60200260200101518152602001908152602001600020600082825461112091906122a2565b90915550505b806111308161236b565b915050611099565b3361114257600080fd5b60085461114f90826119a3565b34101561118a5760405162461bcd60e51b81526020600482015260096024820152684c6f772046756e647360b81b60448201526064016107bb565b600061119560075490565b90506127106111a482846122a2565b11156111de5760405162461bcd60e51b815260206004820152600960248201526813585e081b1a5b5a5d60ba1b60448201526064016107bb565b6127108111156112195760405162461bcd60e51b81526004016107bb9060208082526004908201526314dbdb1960e21b604082015260600190565b601482111561125b5760405162461bcd60e51b815260206004820152600e60248201526d22bc31b2b2b23990373ab6b132b960911b60448201526064016107bb565b6000611285620f424061127f600c54620f424061127891906122ed565b34906119a3565b906119af565b905060006112a7620f424061127f600c546008546119a390919063ffffffff16565b600a549091506112b7908361173e565b600a5560005b8481101561139957600780549060006112d58361236b565b90915550506007546000818152600260205260409020546001600160a01b03161590611300906118a5565b9061131e5760405162461bcd60e51b81526004016107bb91906121b7565b5061132b336007546119bb565b336000908152600e6020908152604080832060078054825460018101845592865284862090920191909155600f548154855260109093529220555461137090836122ba565b600f600082825461138191906122a2565b909155508190506113918161236b565b9150506112bd565b5050505050565b6006546001600160a01b031633146113ca5760405162461bcd60e51b81526004016107bb9061221c565b6001600160a01b03811661142f5760405162461bcd60e51b815260206004820152602660248201527f4f776e61626c653a206e6577206f776e657220697320746865207a65726f206160448201526564647265737360d01b60648201526084016107bb565b61143881611751565b50565b6006546001600160a01b031633146114655760405162461bcd60e51b81526004016107bb9061221c565b600855565b600081815260046020526040902080546001600160a01b0319166001600160a01b038416908117909155819061149f82610c30565b6001600160a01b03167f8c5be1e5ebec7d5bd14f71427d1e84f3dd0314c0f7b2291e5b200ac8c7c3b92560405160405180910390a45050565b6000818152600260205260408120546001600160a01b03166115515760405162461bcd60e51b815260206004820152602c60248201527f4552433732313a206f70657261746f7220717565727920666f72206e6f6e657860448201526b34b9ba32b73a103a37b5b2b760a11b60648201526084016107bb565b600061155c83610c30565b9050806001600160a01b0316846001600160a01b031614806115975750836001600160a01b031661158c84610746565b6001600160a01b0316145b806115c757506001600160a01b0380821660009081526005602090815260408083209388168352929052205460ff165b949350505050565b6115da838383611afd565b60005b6001600160a01b0384166000908152600e6020526040902054811015611710576001600160a01b0384166000908152600e6020526040902080548391908390811061162a5761162a6123dc565b906000526020600020015414156116fe576001600160a01b0384166000908152600e602052604090208054611661906001906122ed565b81548110611671576116716123dc565b9060005260206000200154600e6000866001600160a01b03166001600160a01b0316815260200190815260200160002082815481106116b2576116b26123dc565b60009182526020808320909101929092556001600160a01b0386168152600e909152604090208054806116e7576116e76123c6565b600190038181906000526020600020016000905590555b806117088161236b565b9150506115dd565b506001600160a01b039091166000908152600e60209081526040822080546001810182559083529120015550565b600061174a82846122a2565b9392505050565b600680546001600160a01b038381166001600160a01b0319831681179093556040519116919082907f8be0079c531659141344cd1fd0a4f28419497f9722a3daafe3b4186f6b6457e090600090a35050565b816001600160a01b0316836001600160a01b031614156118055760405162461bcd60e51b815260206004820152601960248201527f4552433732313a20617070726f766520746f2063616c6c65720000000000000060448201526064016107bb565b6001600160a01b03838116600081815260056020908152604080832094871680845294825291829020805460ff191686151590811790915591519182527f17307eab39ab6107e8899845ad3d59bd9653f200f220920489ca2b5937696c31910160405180910390a3505050565b61187d8484846115cf565b61188984848484611c9d565b610eaa5760405162461bcd60e51b81526004016107bb906121ca565b6060816118c95750506040805180820190915260018152600360fc1b602082015290565b8160005b81156118f357806118dd8161236b565b91506118ec9050600a836122ba565b91506118cd565b60008167ffffffffffffffff81111561190e5761190e6123f2565b6040519080825280601f01601f191660200182016040528015611938576020820181803683370190505b5090505b84156115c75761194d6001836122ed565b915061195a600a86612386565b6119659060306122a2565b60f81b81838151811061197a5761197a6123dc565b60200101906001600160f81b031916908160001a90535061199c600a866122ba565b945061193c565b600061174a82846122ce565b600061174a82846122ba565b6001600160a01b038216611a115760405162461bcd60e51b815260206004820181905260248201527f4552433732313a206d696e7420746f20746865207a65726f206164647265737360448201526064016107bb565b6000818152600260205260409020546001600160a01b031615611a765760405162461bcd60e51b815260206004820152601c60248201527f4552433732313a20746f6b656e20616c7265616479206d696e7465640000000060448201526064016107bb565b6001600160a01b0382166000908152600360205260408120805460019290611a9f9084906122a2565b909155505060008181526002602052604080822080546001600160a01b0319166001600160a01b03861690811790915590518392907fddf252ad1be2c89b69c2b068fc378daa952ba7f163c4a11628f55a4df523b3ef908290a45050565b826001600160a01b0316611b1082610c30565b6001600160a01b031614611b785760405162461bcd60e51b815260206004820152602960248201527f4552433732313a207472616e73666572206f6620746f6b656e2074686174206960448201526839903737ba1037bbb760b91b60648201526084016107bb565b6001600160a01b038216611bda5760405162461bcd60e51b8152602060048201526024808201527f4552433732313a207472616e7366657220746f20746865207a65726f206164646044820152637265737360e01b60648201526084016107bb565b611be560008261146a565b6001600160a01b0383166000908152600360205260408120805460019290611c0e9084906122ed565b90915550506001600160a01b0382166000908152600360205260408120805460019290611c3c9084906122a2565b909155505060008181526002602052604080822080546001600160a01b0319166001600160a01b0386811691821790925591518493918716917fddf252ad1be2c89b69c2b068fc378daa952ba7f163c4a11628f55a4df523b3ef91a4505050565b60006001600160a01b0384163b15611d9f57604051630a85bd0160e11b81526001600160a01b0385169063150b7a0290611ce1903390899088908890600401612136565b602060405180830381600087803b158015611cfb57600080fd5b505af1925050508015611d2b575060408051601f3d908101601f19168201909252611d289181019061204c565b60015b611d85573d808015611d59576040519150601f19603f3d011682016040523d82523d6000602084013e611d5e565b606091505b508051611d7d5760405162461bcd60e51b81526004016107bb906121ca565b805181602001fd5b6001600160e01b031916630a85bd0160e11b1490506115c7565b506001949350505050565b828054611db690612330565b90600052602060002090601f016020900481019282611dd85760008555611e1e565b82601f10611df157805160ff1916838001178555611e1e565b82800160010185558215611e1e579182015b82811115611e1e578251825591602001919060010190611e03565b50611e2a929150611e2e565b5090565b5b80821115611e2a5760008155600101611e2f565b600067ffffffffffffffff80841115611e5e57611e5e6123f2565b604051601f8501601f19908116603f01168101908282118183101715611e8657611e866123f2565b81604052809350858152868686011115611e9f57600080fd5b858560208301376000602087830101525050509392505050565b600060208284031215611ecb57600080fd5b813561174a81612408565b60008060408385031215611ee957600080fd5b8235611ef481612408565b946020939093013593505050565b60008060408385031215611f1557600080fd5b8235611f2081612408565b91506020830135611f3081612408565b809150509250929050565b600080600060608486031215611f5057600080fd5b8335611f5b81612408565b92506020840135611f6b81612408565b929592945050506040919091013590565b60008060008060808587031215611f9257600080fd5b8435611f9d81612408565b93506020850135611fad81612408565b925060408501359150606085013567ffffffffffffffff811115611fd057600080fd5b8501601f81018713611fe157600080fd5b611ff087823560208401611e43565b91505092959194509250565b6000806040838503121561200f57600080fd5b823561201a81612408565b915060208301358015158114611f3057600080fd5b60006020828403121561204157600080fd5b813561174a8161241d565b60006020828403121561205e57600080fd5b815161174a8161241d565b60006020828403121561207b57600080fd5b813567ffffffffffffffff81111561209257600080fd5b8201601f810184136120a357600080fd5b6115c784823560208401611e43565b6000602082840312156120c457600080fd5b5035919050565b600081518084526120e3816020860160208601612304565b601f01601f19169290920160200192915050565b60008351612109818460208801612304565b83519083019061211d818360208801612304565b64173539b7b760d91b9101908152600501949350505050565b6001600160a01b0385811682528416602082015260408101839052608060608201819052600090612169908301846120cb565b9695505050505050565b6020808252825182820181905260009190848201906040850190845b818110156121ab5783518352928401929184019160010161218f565b50909695505050505050565b60208152600061174a60208301846120cb565b60208082526032908201527f4552433732313a207472616e7366657220746f206e6f6e20455243373231526560408201527131b2b4bb32b91034b6b83632b6b2b73a32b960711b606082015260800190565b6020808252818101527f4f776e61626c653a2063616c6c6572206973206e6f7420746865206f776e6572604082015260600190565b60208082526031908201527f4552433732313a207472616e736665722063616c6c6572206973206e6f74206f6040820152701ddb995c881b9bdc88185c1c1c9bdd9959607a1b606082015260800190565b600082198211156122b5576122b561239a565b500190565b6000826122c9576122c96123b0565b500490565b60008160001904831182151516156122e8576122e861239a565b500290565b6000828210156122ff576122ff61239a565b500390565b60005b8381101561231f578181015183820152602001612307565b83811115610eaa5750506000910152565b600181811c9082168061234457607f821691505b6020821081141561236557634e487b7160e01b600052602260045260246000fd5b50919050565b600060001982141561237f5761237f61239a565b5060010190565b600082612395576123956123b0565b500690565b634e487b7160e01b600052601160045260246000fd5b634e487b7160e01b600052601260045260246000fd5b634e487b7160e01b600052603160045260246000fd5b634e487b7160e01b600052603260045260246000fd5b634e487b7160e01b600052604160045260246000fd5b6001600160a01b038116811461143857600080fd5b6001600160e01b03198116811461143857600080fdfea26469706673582212203a2151549a22781ad96241c9ab9b9e1589f8c68bdade47264d05c218164448ea64736f6c63430008070033",
  "linkReferences": {},
  "deployedLinkReferences": {}
}