{
  "_format": "hh-sol-artifact-1",
  "contractName": "Marketplace",
  "sourceName": "contracts/Marketplace.sol",
  "abi": [
    {
      "inputs": [],
      "stateMutability": "nonpayable",
      "type": "constructor"
    },
    {
      "anonymous": false,
      "inputs": [
        {
          "indexed": false,
          "internalType": "contract ERC721",
          "name": "collection",
          "type": "address"
        }
      ],
      "name": "AddCollection",
      "type": "event"
    },
    {
      "anonymous": false,
      "inputs": [
        {
          "indexed": false,
          "internalType": "contract ERC721",
          "name": "collection",
          "type": "address"
        },
        {
          "indexed": false,
          "internalType": "uint256",
          "name": "id",
          "type": "uint256"
        },
        {
          "indexed": false,
          "internalType": "uint256",
          "name": "tokenId",
          "type": "uint256"
        },
        {
          "indexed": false,
          "internalType": "address",
          "name": "minter",
          "type": "address"
        },
        {
          "indexed": false,
          "internalType": "uint256",
          "name": "price",
          "type": "uint256"
        }
      ],
      "name": "DeployedItemForSale",
      "type": "event"
    },
    {
      "anonymous": false,
      "inputs": [
        {
          "indexed": false,
          "internalType": "contract ERC721",
          "name": "collection",
          "type": "address"
        },
        {
          "indexed": false,
          "internalType": "uint256",
          "name": "id",
          "type": "uint256"
        },
        {
          "indexed": false,
          "internalType": "uint256",
          "name": "tokenId",
          "type": "uint256"
        },
        {
          "indexed": false,
          "internalType": "address",
          "name": "minter",
          "type": "address"
        },
        {
          "indexed": false,
          "internalType": "address",
          "name": "buyer",
          "type": "address"
        },
        {
          "indexed": false,
          "internalType": "uint256",
          "name": "price",
          "type": "uint256"
        }
      ],
      "name": "ItemSold",
      "type": "event"
    },
    {
      "anonymous": false,
      "inputs": [
        {
          "indexed": true,
          "internalType": "address",
          "name": "previousOwner",
          "type": "address"
        },
        {
          "indexed": true,
          "internalType": "address",
          "name": "newOwner",
          "type": "address"
        }
      ],
      "name": "OwnershipTransferred",
      "type": "event"
    },
    {
      "anonymous": false,
      "inputs": [
        {
          "indexed": false,
          "internalType": "contract ERC721",
          "name": "collection",
          "type": "address"
        }
      ],
      "name": "RemoveCollection",
      "type": "event"
    },
    {
      "anonymous": false,
      "inputs": [
        {
          "indexed": false,
          "internalType": "contract ERC721",
          "name": "collection",
          "type": "address"
        },
        {
          "indexed": false,
          "internalType": "uint256",
          "name": "id",
          "type": "uint256"
        },
        {
          "indexed": false,
          "internalType": "uint256",
          "name": "tokenId",
          "type": "uint256"
        },
        {
          "indexed": false,
          "internalType": "bool",
          "name": "isForSale",
          "type": "bool"
        },
        {
          "indexed": false,
          "internalType": "uint256",
          "name": "price",
          "type": "uint256"
        }
      ],
      "name": "UpdateItem",
      "type": "event"
    },
    {
      "inputs": [
        {
          "internalType": "contract ERC721",
          "name": "collection_",
          "type": "address"
        }
      ],
      "name": "addCollection",
      "outputs": [],
      "stateMutability": "nonpayable",
      "type": "function"
    },
    {
      "inputs": [],
      "name": "amountCollections",
      "outputs": [
        {
          "internalType": "uint256",
          "name": "",
          "type": "uint256"
        }
      ],
      "stateMutability": "view",
      "type": "function"
    },
    {
      "inputs": [
        {
          "internalType": "contract ERC721",
          "name": "collection_",
          "type": "address"
        }
      ],
      "name": "amountItemsForSale",
      "outputs": [
        {
          "internalType": "uint256",
          "name": "",
          "type": "uint256"
        }
      ],
      "stateMutability": "view",
      "type": "function"
    },
    {
      "inputs": [
        {
          "internalType": "contract ERC721",
          "name": "collection_",
          "type": "address"
        },
        {
          "internalType": "uint256",
          "name": "id_",
          "type": "uint256"
        }
      ],
      "name": "buyItem",
      "outputs": [],
      "stateMutability": "payable",
      "type": "function"
    },
    {
      "inputs": [],
      "name": "claimMarketingFee",
      "outputs": [],
      "stateMutability": "nonpayable",
      "type": "function"
    },
    {
      "inputs": [],
      "name": "claimRoyaltyFee",
      "outputs": [
        {
          "internalType": "bool",
          "name": "",
          "type": "bool"
        }
      ],
      "stateMutability": "nonpayable",
      "type": "function"
    },
    {
      "inputs": [
        {
          "internalType": "uint256",
          "name": "",
          "type": "uint256"
        }
      ],
      "name": "collections",
      "outputs": [
        {
          "internalType": "contract ERC721",
          "name": "",
          "type": "address"
        }
      ],
      "stateMutability": "view",
      "type": "function"
    },
    {
      "inputs": [
        {
          "internalType": "contract ERC721",
          "name": "",
          "type": "address"
        },
        {
          "internalType": "uint256",
          "name": "",
          "type": "uint256"
        }
      ],
      "name": "deployedCollectionItems",
      "outputs": [
        {
          "internalType": "bool",
          "name": "",
          "type": "bool"
        }
      ],
      "stateMutability": "view",
      "type": "function"
    },
    {
      "inputs": [
        {
          "internalType": "address",
          "name": "royaltyFeeOwner_",
          "type": "address"
        }
      ],
      "name": "getRoyaltyAmount",
      "outputs": [
        {
          "internalType": "uint256",
          "name": "",
          "type": "uint256"
        }
      ],
      "stateMutability": "view",
      "type": "function"
    },
    {
      "inputs": [
        {
          "internalType": "contract ERC721",
          "name": "",
          "type": "address"
        },
        {
          "internalType": "uint256",
          "name": "",
          "type": "uint256"
        }
      ],
      "name": "itemsOnMarket",
      "outputs": [
        {
          "internalType": "uint256",
          "name": "id",
          "type": "uint256"
        },
        {
          "internalType": "uint256",
          "name": "tokenId",
          "type": "uint256"
        },
        {
          "internalType": "address",
          "name": "minter",
          "type": "address"
        },
        {
          "internalType": "uint256",
          "name": "price",
          "type": "uint256"
        },
        {
          "internalType": "bool",
          "name": "isForSale",
          "type": "bool"
        }
      ],
      "stateMutability": "view",
      "type": "function"
    },
    {
      "inputs": [],
      "name": "marketing",
      "outputs": [
        {
          "internalType": "uint256",
          "name": "",
          "type": "uint256"
        }
      ],
      "stateMutability": "view",
      "type": "function"
    },
    {
      "inputs": [],
      "name": "marketingFee",
      "outputs": [
        {
          "internalType": "uint256",
          "name": "",
          "type": "uint256"
        }
      ],
      "stateMutability": "view",
      "type": "function"
    },
    {
      "inputs": [],
      "name": "owner",
      "outputs": [
        {
          "internalType": "address",
          "name": "",
          "type": "address"
        }
      ],
      "stateMutability": "view",
      "type": "function"
    },
    {
      "inputs": [
        {
          "internalType": "contract ERC721",
          "name": "collection_",
          "type": "address"
        }
      ],
      "name": "removeCollection",
      "outputs": [],
      "stateMutability": "nonpayable",
      "type": "function"
    },
    {
      "inputs": [],
      "name": "renounceOwnership",
      "outputs": [],
      "stateMutability": "nonpayable",
      "type": "function"
    },
    {
      "inputs": [],
      "name": "royalty",
      "outputs": [
        {
          "internalType": "uint256",
          "name": "",
          "type": "uint256"
        }
      ],
      "stateMutability": "view",
      "type": "function"
    },
    {
      "inputs": [
        {
          "internalType": "address",
          "name": "",
          "type": "address"
        }
      ],
      "name": "royaltyFees",
      "outputs": [
        {
          "internalType": "uint256",
          "name": "",
          "type": "uint256"
        }
      ],
      "stateMutability": "view",
      "type": "function"
    },
    {
      "inputs": [
        {
          "internalType": "contract ERC721",
          "name": "collection_",
          "type": "address"
        },
        {
          "internalType": "uint256",
          "name": "tokenId_",
          "type": "uint256"
        },
        {
          "internalType": "uint256",
          "name": "price_",
          "type": "uint256"
        }
      ],
      "name": "setItemForSale",
      "outputs": [
        {
          "internalType": "uint256",
          "name": "",
          "type": "uint256"
        }
      ],
      "stateMutability": "nonpayable",
      "type": "function"
    },
    {
      "inputs": [
        {
          "internalType": "uint256",
          "name": "royalty_",
          "type": "uint256"
        }
      ],
      "name": "setRoyalty",
      "outputs": [],
      "stateMutability": "nonpayable",
      "type": "function"
    },
    {
      "inputs": [
        {
          "internalType": "address",
          "name": "newOwner",
          "type": "address"
        }
      ],
      "name": "transferOwnership",
      "outputs": [],
      "stateMutability": "nonpayable",
      "type": "function"
    },
    {
      "inputs": [
        {
          "internalType": "contract ERC721",
          "name": "collection_",
          "type": "address"
        },
        {
          "internalType": "uint256",
          "name": "id_",
          "type": "uint256"
        },
        {
          "internalType": "bool",
          "name": "isForSale_",
          "type": "bool"
        },
        {
          "internalType": "uint256",
          "name": "newPrice_",
          "type": "uint256"
        }
      ],
      "name": "updateItem",
      "outputs": [],
      "stateMutability": "nonpayable",
      "type": "function"
    }
  ],
  "bytecode": "0x6080604052617530600255614e2060035534801561001c57600080fd5b506100263361002b565b61007b565b600080546001600160a01b038381166001600160a01b0319831681178455604051919092169283917f8be0079c531659141344cd1fd0a4f28419497f9722a3daafe3b4186f6b6457e09190a35050565b611c618061008a6000396000f3fe60806040526004361061012a5760003560e01c80636b67c4df116100ab5780639f37092a1161006f5780639f37092a14610386578063a174e77a14610399578063bc4a7b67146103b9578063c07a2820146103ce578063f2fde38b146103fb578063fdbda0ec1461041b57600080fd5b80636b67c4df146102a85780636df2e0b5146102be578063715018a6146102f45780638728f59a146103095780638da5cb5b1461035457600080fd5b806339788bde116100f257806339788bde1461021e5780633f1aeea4146102335780634209a2e1146102535780635028d05a1461027357806350d036111461029357600080fd5b806327bf56e51461012f57806329ee566c146101785780632aa78b731461018e5780632d3e474a146101b05780633472e193146101c6575b600080fd5b34801561013b57600080fd5b5061016561014a3660046119f6565b6001600160a01b031660009081526005602052604090205490565b6040519081526020015b60405180910390f35b34801561018457600080fd5b5061016560025481565b34801561019a57600080fd5b506101ae6101a9366004611a63565b61043b565b005b3480156101bc57600080fd5b5061016560035481565b3480156101d257600080fd5b506101e66101e1366004611a37565b6107c6565b6040805195865260208601949094526001600160a01b039092169284019290925260608301919091521515608082015260a00161016f565b34801561022a57600080fd5b506101ae610820565b34801561023f57600080fd5b5061016561024e366004611ab0565b6108d2565b34801561025f57600080fd5b506101ae61026e366004611ae5565b610d9f565b34801561027f57600080fd5b506101ae61028e3660046119f6565b610dce565b34801561029f57600080fd5b50600154610165565b3480156102b457600080fd5b5061016560045481565b3480156102ca57600080fd5b506101656102d93660046119f6565b6001600160a01b031660009081526006602052604090205490565b34801561030057600080fd5b506101ae610f3c565b34801561031557600080fd5b50610344610324366004611a37565b600760209081526000928352604080842090915290825290205460ff1681565b604051901515815260200161016f565b34801561036057600080fd5b506000546001600160a01b03165b6040516001600160a01b03909116815260200161016f565b6101ae610394366004611a37565b610f72565b3480156103a557600080fd5b506101ae6103b43660046119f6565b6116cf565b3480156103c557600080fd5b50610344611835565b3480156103da57600080fd5b506101656103e93660046119f6565b60066020526000908152604090205481565b34801561040757600080fd5b506101ae6104163660046119f6565b6118e1565b34801561042757600080fd5b5061036e610436366004611ae5565b61197c565b6001600160a01b03841660009081526005602052604090205484908490811080156104a257506001600160a01b038216600090815260056020526040902080548291908290811061048e5761048e611c00565b906000526020600020906005020160000154145b6104e95760405162461bcd60e51b8152602060048201526013602482015272436f756c64206e6f742066696e64206974656d60681b60448201526064015b60405180910390fd5b6001600160a01b038616600090815260056020526040812080548790811061051357610513611c00565b600091825260208220600160059092020101546040516331a9108f60e11b8152600481018290529092506001600160a01b03891690636352211e9060240160206040518083038186803b15801561056957600080fd5b505afa15801561057d573d6000803e3d6000fd5b505050506040513d601f19601f820116820180604052508101906105a19190611a1a565b90506001600160a01b03811633146105fb5760405162461bcd60e51b815260206004820152601c60248201527f53656e64657220646f6573206e6f74206f776e20746865206974656d0000000060448201526064016104e0565b60008511801561064657506001600160a01b038816600090815260056020526040902080548890811061063057610630611c00565b9060005260206000209060050201600301548514155b6106c75760405162461bcd60e51b815260206004820152604660248201527f7072696365206d75737420626520626967676572207468616e2030206f72207960448201527f6f7520646f6e2774206665656c20746f206e6565642075706461746520666f726064820152651039b0b6329760d11b608482015260a4016104e0565b6001600160a01b03881660009081526005602052604090208054869190899081106106f4576106f4611c00565b90600052602060002090600502016003018190555085600560008a6001600160a01b03166001600160a01b03168152602001908152602001600020888154811061074057610740611c00565b600091825260209182902060059190910201600401805460ff191692151592909217909155604080516001600160a01b038b16815291820189905281018390528615156060820152608081018690527fceba6f7226a90902f4e66f9e5e66cf4e67d60898541ffa1fc996573dac982bbe9060a00160405180910390a15050505050505050565b600560205281600052604060002081815481106107e257600080fd5b6000918252602090912060059091020180546001820154600283015460038401546004909401549295509093506001600160a01b0316919060ff1685565b6000546001600160a01b0316331461084a5760405162461bcd60e51b81526004016104e090611afe565b60006004541161089c5760405162461bcd60e51b815260206004820152601c60248201527f4d61726b6574696e6720666565206973206e6f7420656e6f7567682e0000000060448201526064016104e0565b600454604051339180156108fc02916000818181858888f193505050501580156108ca573d6000803e3d6000fd5b506000600455565b60008381805b60015481101561093157826001600160a01b0316600182815481106108ff576108ff611c00565b6000918252602090912001546001600160a01b0316141561091f57600191505b8061092981611ba3565b9150506108d8565b50806109935760405162461bcd60e51b815260206004820152602b60248201527f436f6c6c656374696f6e206973206e6f74206465706c6f796564206f6e206d6160448201526a3935b2ba16b83630b1b29760a91b60648201526084016104e0565b6040516331a9108f60e11b8152600481018690528690869033906001600160a01b03841690636352211e9060240160206040518083038186803b1580156109d957600080fd5b505afa1580156109ed573d6000803e3d6000fd5b505050506040513d601f19601f82011682018060405250810190610a119190611a1a565b6001600160a01b031614610a675760405162461bcd60e51b815260206004820152601c60248201527f53656e64657220646f6573206e6f74206f776e20746865206974656d0000000060448201526064016104e0565b60405163020604bf60e21b8152600481018890528890889030906001600160a01b0384169063081812fc9060240160206040518083038186803b158015610aad57600080fd5b505afa158015610ac1573d6000803e3d6000fd5b505050506040513d601f19601f82011682018060405250810190610ae59190611a1a565b6001600160a01b031614610b345760405162461bcd60e51b815260206004820152601660248201527513585c9ad95d081a5cc81b9bdd08185c1c1c9bdd995960521b60448201526064016104e0565b6001600160a01b038a1660009081526007602090815260408083208c845290915290205460ff1615610ba85760405162461bcd60e51b815260206004820152601f60248201527f5468697320746f6b656e20697320616c7265616479206465706c6f7965642e0060448201526064016104e0565b6000600560008c6001600160a01b03166001600160a01b03168152602001908152602001600020805490509050600560008c6001600160a01b03166001600160a01b031681526020019081526020016000206040518060a001604052808381526020018c8152602001336001600160a01b031681526020018b8152602001600115158152509080600181540180825580915050600190039060005260206000209060050201600090919091909150600082015181600001556020820151816001015560408201518160020160006101000a8154816001600160a01b0302191690836001600160a01b031602179055506060820151816003015560808201518160040160006101000a81548160ff021916908315150217905550505080600560008d6001600160a01b03166001600160a01b031681526020019081526020016000208281548110610cfa57610cfa611c00565b90600052602060002090600502016000015414610d1957610d19611bbe565b6001600160a01b038b1660008181526007602090815260408083208e8452825291829020805460ff191660011790558151928352820183905281018b9052336060820152608081018a90527f3665e1ccd128c7f0b2088647f26831aac48dbfcc14da9dbdb07140a709a136539060a00160405180910390a19a9950505050505050505050565b6000546001600160a01b03163314610dc95760405162461bcd60e51b81526004016104e090611afe565b600255565b6000546001600160a01b03163314610df85760405162461bcd60e51b81526004016104e090611afe565b60005b600154811015610efc57816001600160a01b031660018281548110610e2257610e22611c00565b6000918252602090912001546001600160a01b03161415610eea5760018054610e4c908290611b8c565b81548110610e5c57610e5c611c00565b600091825260209091200154600180546001600160a01b039092169183908110610e8857610e88611c00565b9060005260206000200160006101000a8154816001600160a01b0302191690836001600160a01b031602179055506001805480610ec757610ec7611bea565b600082815260209020810160001990810180546001600160a01b03191690550190555b80610ef481611ba3565b915050610dfb565b506040516001600160a01b03821681527feff1f2850a5fc2e92e191ffa2422b1a5459e2b76685c9b53dd414139ab3185fa9060200160405180910390a150565b6000546001600160a01b03163314610f665760405162461bcd60e51b81526004016104e090611afe565b610f7060006119a6565b565b6001600160a01b0382166000908152600560205260409020548290829081108015610fd957506001600160a01b0382166000908152600560205260409020805482919082908110610fc557610fc5611c00565b906000526020600020906005020160000154145b61101b5760405162461bcd60e51b8152602060048201526013602482015272436f756c64206e6f742066696e64206974656d60681b60448201526064016104e0565b6001600160a01b03841660009081526005602052604090208054859185918290811061104957611049611c00565b600091825260209091206004600590920201015460ff166110a45760405162461bcd60e51b815260206004820152601560248201527424ba32b69034b9903737ba103337b91039b0b6329760591b60448201526064016104e0565b6001600160a01b0386166000818152600560205260409020805430929163081812fc91899081106110d7576110d7611c00565b9060005260206000209060050201600101546040518263ffffffff1660e01b815260040161110791815260200190565b60206040518083038186803b15801561111f57600080fd5b505afa158015611133573d6000803e3d6000fd5b505050506040513d601f19601f820116820180604052508101906111579190611a1a565b6001600160a01b0316146111a65760405162461bcd60e51b815260206004820152601660248201527513585c9ad95d081a5cc81b9bdd08185c1c1c9bdd995960521b60448201526064016104e0565b6001600160a01b03861660009081526005602052604090208054869081106111d0576111d0611c00565b90600052602060002090600502016003015434101561122a5760405162461bcd60e51b81526020600482015260166024820152752737ba1032b737bab3b410333ab732399039b2b73a1760511b60448201526064016104e0565b6001600160a01b03861660008181526005602052604090208054636352211e91908890811061125b5761125b611c00565b9060005260206000209060050201600101546040518263ffffffff1660e01b815260040161128b91815260200190565b60206040518083038186803b1580156112a357600080fd5b505afa1580156112b7573d6000803e3d6000fd5b505050506040513d601f19601f820116820180604052508101906112db9190611a1a565b6001600160a01b0316336001600160a01b0316141561133c5760405162461bcd60e51b815260206004820152601d60248201527f4f776e6572206f66206974656d2063616e277420627579206974656d2e00000060448201526064016104e0565b6001600160a01b03861660008181526005602052604081208054919291636352211e91908990811061137057611370611c00565b9060005260206000209060050201600101546040518263ffffffff1660e01b81526004016113a091815260200190565b60206040518083038186803b1580156113b857600080fd5b505afa1580156113cc573d6000803e3d6000fd5b505050506040513d601f19601f820116820180604052508101906113f09190611a1a565b9050600080620f4240600254346114079190611b6d565b6114119190611b4b565b9150620f4240600354346114259190611b6d565b61142f9190611b4b565b905080600460008282546114439190611b33565b90915550506001600160a01b038916600090815260056020526040812080548a90811061147257611472611c00565b60009182526020808320600260059093020191909101546001600160a01b03168083526006909152604082208054919350859290916114b2908490611b33565b9091555060009050826114c58534611b8c565b6114cf9190611b8c565b6001600160a01b038c166000908152600560205260408120805492935090918c9081106114fe576114fe611c00565b60009182526020808320600592830201600401805460ff1916941515949094179093556001600160a01b038e1682529091526040812080548c90811061154657611546611c00565b90600052602060002090600502016001015490506000600560008e6001600160a01b03166001600160a01b031681526020019081526020016000208c8154811061159257611592611c00565b6000918252602090912060036005909202010154604051632142170760e11b81526001600160a01b03898116600483015233602483015260448201859052919250908e16906342842e0e90606401600060405180830381600087803b1580156115fa57600080fd5b505af115801561160e573d6000803e3d6000fd5b50506040516001600160a01b038a16925085156108fc02915085906000818181858888f19350505050158015611648573d6000803e3d6000fd5b507f0401a80d49d052905d70611086743c0a83ac03ac1ad506ef9b450cab4867fbd58d8d848733866040516116b8969594939291906001600160a01b039687168152602081019590955260408501939093529084166060840152909216608082015260a081019190915260c00190565b60405180910390a150505050505050505050505050565b6000546001600160a01b031633146116f95760405162461bcd60e51b81526004016104e090611afe565b6000805b60015481101561175657826001600160a01b03166001828154811061172457611724611c00565b6000918252602090912001546001600160a01b0316141561174457600191505b8061174e81611ba3565b9150506116fd565b5080156117b15760405162461bcd60e51b815260206004820152602360248201527f4974656d20697320616c7265616479206465706c6f796564206f6e206d61726b60448201526232ba1760e91b60648201526084016104e0565b6001805480820182556000919091527fb10e2d527612073b26eecdfd717e6a320cf44b4afac2b0732d9fcbe2b7fa0cf60180546001600160a01b0319166001600160a01b0384169081179091556040519081527f6077476a981d09a671dcf75f020b16a4a55b5221b00225c895d94cac2c5a431a9060200160405180910390a15050565b3360009081526006602052604081205481106118935760405162461bcd60e51b815260206004820152601b60248201527f436c61696d20416d6f756e74206973206e6f7420656e6f7567682e000000000060448201526064016104e0565b3360008181526006602052604080822054905181156108fc0292818181858888f193505050501580156118ca573d6000803e3d6000fd5b505033600090815260066020526040812055600190565b6000546001600160a01b0316331461190b5760405162461bcd60e51b81526004016104e090611afe565b6001600160a01b0381166119705760405162461bcd60e51b815260206004820152602660248201527f4f776e61626c653a206e6577206f776e657220697320746865207a65726f206160448201526564647265737360d01b60648201526084016104e0565b611979816119a6565b50565b6001818154811061198c57600080fd5b6000918252602090912001546001600160a01b0316905081565b600080546001600160a01b038381166001600160a01b0319831681178455604051919092169283917f8be0079c531659141344cd1fd0a4f28419497f9722a3daafe3b4186f6b6457e09190a35050565b600060208284031215611a0857600080fd5b8135611a1381611c16565b9392505050565b600060208284031215611a2c57600080fd5b8151611a1381611c16565b60008060408385031215611a4a57600080fd5b8235611a5581611c16565b946020939093013593505050565b60008060008060808587031215611a7957600080fd5b8435611a8481611c16565b93506020850135925060408501358015158114611aa057600080fd5b9396929550929360600135925050565b600080600060608486031215611ac557600080fd5b8335611ad081611c16565b95602085013595506040909401359392505050565b600060208284031215611af757600080fd5b5035919050565b6020808252818101527f4f776e61626c653a2063616c6c6572206973206e6f7420746865206f776e6572604082015260600190565b60008219821115611b4657611b46611bd4565b500190565b600082611b6857634e487b7160e01b600052601260045260246000fd5b500490565b6000816000190483118215151615611b8757611b87611bd4565b500290565b600082821015611b9e57611b9e611bd4565b500390565b6000600019821415611bb757611bb7611bd4565b5060010190565b634e487b7160e01b600052600160045260246000fd5b634e487b7160e01b600052601160045260246000fd5b634e487b7160e01b600052603160045260246000fd5b634e487b7160e01b600052603260045260246000fd5b6001600160a01b038116811461197957600080fdfea26469706673582212202f569489704875755583181a2c4c64be30ee0979f57b0f1340013161b407340764736f6c63430008070033",
  "linkReferences": {},
  "deployedLinkReferences": {}
}